:020000040000FA
:0400000040EF01F0DC
:020008001000E6
:080018001000140E016EFA0E37
:10002000006E000000000000000000000000000062
:1000300000000000000000000000000000000000C0
:1000400000000000002EEDD7012EE9D71200060EA9
:10005000946E956A380E836E37EC00F00F0E836E47
:1000600037EC00F0010E836E37EC00F0120082983E
:10007000829A828C0DEC00F0829C12008288829A17
:10008000828C0DEC00F0829C120027EC00F0800EB8
:10009000836E37EC00F0120027EC00F0C00E836E88
:1000A00037EC00F0120045EC00F0440E836E3EEC9D
:1000B00000F0490E836E3EEC00F0590E836E3EEC6C
:1000C00000F0410E836E3EEC00F04E0E836E3EEC6F
:1000D00000F0410E836E3EEC00F0120045EC00F0A3
:1000E000440E836E3EEC00F0450E836E3EEC00F055
:1000F000390E836E3EEC00F0360E836E3EEC00F05F
:10010000330E836E3EEC00F0350E836E3EEC00F055
:10011000360E836E3EEC00F012008188819A819C3D
:10012000819E12008198818A819C819E1200819813
:10013000819A818C819E12008198819A819C818E06
:1001400012000E0E936E8DEC00F081A202D0ECEC4A
:1001500000F08DEC00F081A402D0F3EC00F08DEC07
:1001600000F081A602D0FAEC00F092EC00F081A23F
:1001700002D001EC01F092EC00F081A402D008EC76
:1001800001F092EC00F081A602D00FEC01F097ECA8
:1001900000F081A202D016EC01F097EC00F081A4EF
:1001A00002D01DEC01F097EC00F081A602D024EC07
:1001B00001F09CEC00F081A202D02BEC01F09CEC51
:1001C00000F081A402D032EC01F09CEC00F081A69A
:1001D000BAD739EC01F012004CEC00F0310E836E0E
:1001E0003EEC00F012004CEC00F0320E836E3EEC60
:1001F00000F012004CEC00F0330E836E3EEC00F089
:1002000012004CEC00F0340E836E3EEC00F0120055
:100210004CEC00F0350E836E3EEC00F012004CEC1E
:1002200000F0360E836E3EEC00F012004CEC00F055
:10023000370E836E3EEC00F012004CEC00F0380EEE
:10024000836E3EEC00F012004CEC00F0390E836E31
:100250003EEC00F012004CEC00F02A0E836E3EECF7
:1002600000F012004CEC00F0300E836E3EEC00F01B
:1002700012004CEC00F0230E836E3EEC00F01200F6
:1002800027EC00F0060E946E82A202D053EC00F030
:0E02900082A4FAD76EEC00F0A1EC00F0F5D7D6
:00000001FF
